:100000001128FF3FFF3FFF3F7E1480310B1F0F2859
:100010002100111C0F282000111C0F2862217E10C6
:1000200009001228F901FA01FB017E1020001828AE
:10003000B701B8016A215A210530F2008130F3007E
:100040001A218B170B17640020008C1A31283708EF
:100050003804031D4328B5207308B8007208B700A0
:1000600043283708380403194328B520370872029B
:10007000B7003808733BB8000230B836B70C890BAC
:100080003D28B701B80121009D1823281B08200036
:10009000A800A90121001C082000AA00AB012A0821
:1000A000AB00AA0128082A07B30029082B3DB40099
:1000B000B501B60121009D14FF302000B3050330C7
:1000C000B4050030B5050030B6050030A30000309F
:1000D000A2001330A1008830A0003608A700350820
:1000E000A6003408A5003308A40086202308B60023
:1000F0002208B5002108B4002008B3000A30B63643
:10010000B50CB40CB30C890B7F2823280030F50004
:100110000030F4000030F3000030F200201C98287A
:100120002408F2072508F33D2608F43D2708F53D8D
:100130000130A435A50DA60DA70D890B9928013016
:10014000A336A20CA10CA00C890BA0282308220422
:1001500021042004031D8E287508A3007408A20042
:100160007308A1007208A00008001608F4007408C3
:10017000A3001708F4007408A2002308F400F50196
:100180002208F600F7017608F700F60174087604F5
:10019000A00075087704A1002108F3002008F200F0
:1001A0000800083023009F0080309D0024309E000E
:1001B000CF309B009C010030F2000030F3007E2124
:1001C0000030F2000030F30084210030F2000030F3
:1001D000F3008921FB01080022008C013930210045
:1001E0008C00013023008C00223024008C00210080
:1001F000951325008C01373026008C003F302700F6
:100200008C00043022009D000800553453344234E1
:10021000203454346F3420345534413452345434FF
:1002200020344234723469346434673465342034A1
:1002300076340034720884007308850012000319B4
:10024000080023009E1C2129720884007308850081
:1002500000089A000130F2070030F33D1A2920000F
:1002600099019701960111101708BC001608BB00F0
:10027000210011149C30F2000130F3007821F1309C
:1002800098000800181D4B29181071089700700875
:10029000960018140800710897007008960008006E
:1002A00039083A04031908003A088A0039080A0094
:1002B00081310800F901FA019330F2000130F300B6
:1002C0007821080011103C08F1003B08F0004221A1
:1002D00050210800EC20712198218E212F21D1205E
:1002E0000800703021009900980122009601080052
:1002F00073082000BA007208B900080073082000D3
:10030000C2007208C10008007308C0007208BF0074
:1003100008007308BE007208BD000800A03022006B
:100320009800990108000130F9070030FA3D0800F3
:1003300016302100970008000800FF3FFF3FFF3FF5
:020000040001F9
:0800000005000E000C000C00CD
:04000E00FC3FFF3E76
:00000001FF
